{
  "_format": "hh-sol-artifact-1",
  "contractName": "HelloWorld",
  "sourceName": "contracts/HelloWorld.sol",
  "abi": [
    {
      "inputs": [
        {
          "internalType": "string",
          "name": "initMessage",
          "type": "string"
        }
      ],
      "stateMutability": "nonpayable",
      "type": "constructor"
    },
    {
      "anonymous": false,
      "inputs": [
        {
          "indexed": false,
          "internalType": "string",
          "name": "oldStr",
          "type": "string"
        },
        {
          "indexed": false,
          "internalType": "string",
          "name": "newStr",
          "type": "string"
        }
      ],
      "name": "UpdatedMessages",
      "type": "event"
    },
    {
      "inputs": [
        {
          "internalType": "uint256",
          "name": "_min",
          "type": "uint256"
        },
        {
          "internalType": "uint256",
          "name": "_max",
          "type": "uint256"
        },
        {
          "internalType": "uint256",
          "name": "blockNumber",
          "type": "uint256"
        },
        {
          "internalType": "uint256",
          "name": "gasLeft",
          "type": "uint256"
        }
      ],
      "name": "getRandomMinMax",
      "outputs": [
        {
          "internalType": "uint256",
          "name": "random",
          "type": "uint256"
        }
      ],
      "stateMutability": "view",
      "type": "function"
    },
    {
      "inputs": [
        {
          "internalType": "uint256",
          "name": "blockNumber",
          "type": "uint256"
        },
        {
          "internalType": "uint256",
          "name": "gasLeft",
          "type": "uint256"
        }
      ],
      "name": "getRandomMinMax2",
      "outputs": [
        {
          "internalType": "uint256",
          "name": "random",
          "type": "uint256"
        }
      ],
      "stateMutability": "view",
      "type": "function"
    },
    {
      "inputs": [],
      "name": "message",
      "outputs": [
        {
          "internalType": "string",
          "name": "",
          "type": "string"
        }
      ],
      "stateMutability": "view",
      "type": "function"
    },
    {
      "inputs": [
        {
          "internalType": "string",
          "name": "newMessage",
          "type": "string"
        }
      ],
      "name": "update",
      "outputs": [],
      "stateMutability": "nonpayable",
      "type": "function"
    }
  ],
  "bytecode": "0x608060405234801561001057600080fd5b506040516107c53803806107c58339818101604052602081101561003357600080fd5b810190808051604051939291908464010000000082111561005357600080fd5b8382019150602082018581111561006957600080fd5b825186600182028301116401000000008211171561008657600080fd5b8083526020830192505050908051906020019080838360005b838110156100ba57808201518184015260208101905061009f565b50505050905090810190601f1680156100e75780820380516001836020036101000a031916815260200191505b50604052505050806000908051906020019061010492919061010b565b50506101a8565b828054600181600116156101000203166002900490600052602060002090601f016020900481019282601f1061014c57805160ff191683800117855561017a565b8280016001018555821561017a579182015b8281111561017957825182559160200191906001019061015e565b5b509050610187919061018b565b5090565b5b808211156101a457600081600090555060010161018c565b5090565b61060e806101b76000396000f3fe608060405234801561001057600080fd5b506004361061004c5760003560e01c80631594b270146100515780633d7403a31461009d5780637bb7fd6714610158578063e21f37ce146101b8575b600080fd5b6100876004803603604081101561006757600080fd5b81019080803590602001909291908035906020019092919050505061023b565b6040518082815260200191505060405180910390f35b610156600480360360208110156100b357600080fd5b81019080803590602001906401000000008111156100d057600080fd5b8201836020820111156100e257600080fd5b8035906020019184600183028401116401000000008311171561010457600080fd5b91908080601f016020809104026020016040519081016040528093929190818152602001838380828437600081840152601f19601f820116905080830192505050505050509192919290505050610286565b005b6101a26004803603608081101561016e57600080fd5b8101908080359060200190929190803590602001909291908035906020019092919080359060200190929190505050610449565b6040518082815260200191505060405180910390f35b6101c061049d565b6040518080602001828103825283818151815260200191508051906020019080838360005b838110156102005780820151818401526020810190506101e5565b50505050905090810190601f16801561022d5780820380516001836020036101000a031916815260200191505b509250505060405180910390f35b6000600161271084408460405160200180838152602001828152602001925050506040516020818303038152906040528051906020012060001c8161027c57fe5b0601905092915050565b606060008054600181600116156101000203166002900480601f01602080910402602001604051908101604052809291908181526020018280546001816001161561010002031660029004801561031e5780601f106102f35761010080835404028352916020019161031e565b820191906000526020600020905b81548152906001019060200180831161030157829003601f168201915b50505050509050816000908051906020019061033b92919061053b565b507ff91d506d7335e83e4869a58cd98e0557cdcef6f507ba1e52725521305626d05b8183604051808060200180602001838103835285818151815260200191508051906020019080838360005b838110156103a3578082015181840152602081019050610388565b50505050905090810190601f1680156103d05780820380516001836020036101000a031916815260200191505b50838103825284818151815260200191508051906020019080838360005b838110156104095780820151818401526020810190506103ee565b50505050905090810190601f1680156104365780820380516001836020036101000a031916815260200191505b5094505050505060405180910390a15050565b6000806001868603019050858185408560405160200180838152602001828152602001925050506040516020818303038152906040528051906020012060001c8161049057fe5b0601915050949350505050565b60008054600181600116156101000203166002900480601f0160208091040260200160405190810160405280929190818152602001828054600181600116156101000203166002900480156105335780601f1061050857610100808354040283529160200191610533565b820191906000526020600020905b81548152906001019060200180831161051657829003601f168201915b505050505081565b828054600181600116156101000203166002900490600052602060002090601f016020900481019282601f1061057c57805160ff19168380011785556105aa565b828001600101855582156105aa579182015b828111156105a957825182559160200191906001019061058e565b5b5090506105b791906105bb565b5090565b5b808211156105d45760008160009055506001016105bc565b509056fea26469706673582212205439dcb6b0da529adae9babe7c682ec8c3727962cecaf8fcb2ce0276befbf74764736f6c63430007030033",
  "linkReferences": {},
  "deployedLinkReferences": {}
}